{
  "_format": "hh-sol-artifact-1",
  "contractName": "BetFactory",
  "sourceName": "contracts/BetFactory.sol",
  "abi": [
    {
      "inputs": [],
      "stateMutability": "nonpayable",
      "type": "constructor"
    },
    {
      "anonymous": false,
      "inputs": [
        {
          "indexed": true,
          "internalType": "address",
          "name": "newMarketAddress",
          "type": "address"
        },
        {
          "indexed": true,
          "internalType": "address",
          "name": "owner",
          "type": "address"
        }
      ],
      "name": "NewMarketCreated",
      "type": "event"
    },
    {
      "inputs": [
        {
          "internalType": "uint256",
          "name": "_settlementTime",
          "type": "uint256"
        },
        {
          "internalType": "int256",
          "name": "_targetPrice",
          "type": "int256"
        },
        {
          "internalType": "address",
          "name": "_priceFeedAddress",
          "type": "address"
        }
      ],
      "name": "createMarket",
      "outputs": [
        {
          "internalType": "address",
          "name": "newMarketAddress",
          "type": "address"
        }
      ],
      "stateMutability": "nonpayable",
      "type": "function"
    },
    {
      "inputs": [
        {
          "internalType": "uint256",
          "name": "",
          "type": "uint256"
        }
      ],
      "name": "deployedMarkets",
      "outputs": [
        {
          "internalType": "address",
          "name": "",
          "type": "address"
        }
      ],
      "stateMutability": "view",
      "type": "function"
    },
    {
      "inputs": [],
      "name": "owner",
      "outputs": [
        {
          "internalType": "address",
          "name": "",
          "type": "address"
        }
      ],
      "stateMutability": "view",
      "type": "function"
    }
  ],
  "bytecode": "0x6080604052348015600f57600080fd5b50600080546001600160a01b03191633179055610fb3806100316000396000f3fe608060405234801561001057600080fd5b50600436106100415760003560e01c80635b51eb88146100465780638da5cb5b14610075578063fcf0a1f814610088575b600080fd5b61005961005436600461019e565b61009b565b6040516001600160a01b03909116815260200160405180910390f35b600054610059906001600160a01b031681565b6100596100963660046101b7565b6100c5565b600181815481106100ab57600080fd5b6000918252602090912001546001600160a01b0316905081565b6000808484846040516100d790610191565b92835260208301919091526001600160a01b03166040820152606001604051809103906000f08015801561010f573d6000803e3d6000fd5b5060018054808201825560009182527fb10e2d527612073b26eecdfd717e6a320cf44b4afac2b0732d9fcbe2b7fa0cf60180546001600160a01b0319166001600160a01b038416908117909155604051929350339290917f6ee2b8515b3ffa80221478057fa617bb6691d0175ea7ca795169a22b9700843b91a3949350505050565b610d81806101fd83390190565b6000602082840312156101b057600080fd5b5035919050565b6000806000606084860312156101cc57600080fd5b833592506020840135915060408401356001600160a01b03811681146101f157600080fd5b80915050925092509256fe60a060405234801561001057600080fd5b50604051610d81380380610d8183398101604081905261002f9161006b565b33608052600092909255600155600880546001600160a81b0319166101006001600160a01b039093169290920260ff19169190911790556100b1565b60008060006060848603121561008057600080fd5b83516020850151604086015191945092506001600160a01b03811681146100a657600080fd5b809150509250925092565b608051610cae6100d3600039600081816101fe01526104660152610cae6000f3fe6080604052600436106100c25760003560e01c806382f97db71161007f5780638e15f473116100595780638e15f47314610220578063929066f514610235578063a1a1641f14610265578063dc38679c1461027b57600080fd5b806382f97db7146101955780638d4e4083146101c25780638da5cb5b146101ec57600080fd5b80630553d604146100c7578063096a3778146100f057806335c1d349146101055780634bb278f31461013d5780635923f53d1461015257806367432b831461017f575b600080fd5b3480156100d357600080fd5b506100dd60005481565b6040519081526020015b60405180910390f35b6101036100fe366004610af4565b610291565b005b34801561011157600080fd5b50610125610120366004610b1d565b610431565b6040516001600160a01b0390911681526020016100e7565b34801561014957600080fd5b5061010361045b565b34801561015e57600080fd5b506100dd61016d366004610b36565b60026020526000908152604090205481565b34801561018b57600080fd5b506100dd60055481565b3480156101a157600080fd5b506100dd6101b0366004610b36565b60036020526000908152604090205481565b3480156101ce57600080fd5b506008546101dc9060ff1681565b60405190151581526020016100e7565b3480156101f857600080fd5b506101257f000000000000000000000000000000000000000000000000000000000000000081565b34801561022c57600080fd5b506100dd61084f565b34801561024157600080fd5b506101dc610250366004610b36565b60076020526000908152604090205460ff1681565b34801561027157600080fd5b506100dd60045481565b34801561028757600080fd5b506100dd60015481565b60005442106102dd5760405162461bcd60e51b81526020600482015260136024820152722132ba3a34b733903430b99031b637b9b2b21760691b60448201526064015b60405180910390fd5b6000341161033b5760405162461bcd60e51b815260206004820152602560248201527f42657420616d6f756e74206d7573742062652067726561746572207468616e206044820152643d32b9379760d91b60648201526084016102d4565b3360009081526007602052604090205460ff166103ad576006805460018181019092557ff652222313e28459528d920b65115c16c04f3efc82aaedc97be59f3f377c0d3f0180546001600160a01b031916339081179091556000908152600760205260409020805460ff191690911790555b80156103f257336000908152600260205260409020546103ce903490610b75565b336000908152600260205260409020556004546103ec903490610b75565b60045550565b3360009081526003602052604090205461040d903490610b75565b3360009081526003602052604090205560055461042b903490610b75565b60055550565b6006818154811061044157600080fd5b6000918252602090912001546001600160a01b0316905081565b336001600160a01b037f000000000000000000000000000000000000000000000000000000000000000016146104e25760405162461bcd60e51b815260206004820152602660248201527f4f6e6c7920746865206f776e65722063616e2063616c6c20746869732066756e60448201526531ba34b7b71760d11b60648201526084016102d4565b600854600160a81b900460ff161561052c5760405162461bcd60e51b815260206004820152600d60248201526c4e6f207265656e7472616e637960981b60448201526064016102d4565b6008805460ff60a81b1916600160a81b17905560005442101561059d5760405162461bcd60e51b8152602060048201526024808201527f536574746c656d656e742074696d6520686173206e6f742061727269766564206044820152633cb2ba1760e11b60648201526084016102d4565b60085460ff16156105f05760405162461bcd60e51b815260206004820152601c60248201527f4d61726b657420697320616c72656164792066696e616c697a65642e0000000060448201526064016102d4565b60006005546004546106029190610b75565b90508060000361061f57506008805460ff19166001179055610840565b804710156106855760405162461bcd60e51b815260206004820152602d60248201527f496e73756666696369656e7420636f6e74726163742062616c616e636520666f60448201526c391039b2ba3a3632b6b2b73a1760991b60648201526084016102d4565b600061068f61084f565b6001549091508112156000816106a7576005546106ab565b6004545b90506000826106bc576004546106c0565b6005545b9050816000036106e25750506008805460ff1916600117905550610840915050565b60006106ed8461092e565b905060005b815181101561082b57600082828151811061070f5761070f610b8e565b6020026020010151905060008661073e576001600160a01b038216600090815260036020526040902054610758565b6001600160a01b0382166000908152600260205260409020545b90506000866107678388610ba4565b6107719190610bbb565b905060006001600160a01b0384166107898385610b75565b604051600081818185875af1925050503d80600081146107c5576040519150601f19603f3d011682016040523d82523d6000602084013e6107ca565b606091505b505090508061081b5760405162461bcd60e51b815260206004820152601e60248201527f5472616e73666572206661696c656420647572696e67207061796f75742e000060448201526064016102d4565b5050600190920191506106f29050565b50506008805460ff1916600117905550505050505b6008805460ff60a81b19169055565b600080600860019054906101000a90046001600160a01b03166001600160a01b031663feaf968c6040518163ffffffff1660e01b815260040160a060405180830381865afa1580156108a5573d6000803e3d6000fd5b505050506040513d601f19601f820116820180604052508101906108c99190610bf7565b505050915050600081136109295760405162461bcd60e51b815260206004820152602160248201527f507269636520666565642072657475726e656420696e76616c696420646174616044820152601760f91b60648201526084016102d4565b919050565b60065460609060009067ffffffffffffffff81111561094f5761094f610c49565b604051908082528060200260200182016040528015610978578160200160208202803683370190505b5090506000805b600654811015610a4c5760006006828154811061099e5761099e610b8e565b60009182526020822001546001600160a01b0316915086156109e1576001600160a01b038216600090815260026020526040902054156109dc575060015b610a03565b6001600160a01b03821660009081526003602052604090205415610a03575060015b8015610a425781858581518110610a1c57610a1c610b8e565b6001600160a01b039092166020928302919091019091015283610a3e81610c5f565b9450505b505060010161097f565b5060008167ffffffffffffffff811115610a6857610a68610c49565b604051908082528060200260200182016040528015610a91578160200160208202803683370190505b50905060005b82811015610aeb57838181518110610ab157610ab1610b8e565b6020026020010151828281518110610acb57610acb610b8e565b6001600160a01b0390921660209283029190910190910152600101610a97565b50949350505050565b600060208284031215610b0657600080fd5b81358015158114610b1657600080fd5b9392505050565b600060208284031215610b2f57600080fd5b5035919050565b600060208284031215610b4857600080fd5b81356001600160a01b0381168114610b1657600080fd5b634e487b7160e01b600052601160045260246000fd5b80820180821115610b8857610b88610b5f565b92915050565b634e487b7160e01b600052603260045260246000fd5b8082028115828204841417610b8857610b88610b5f565b600082610bd857634e487b7160e01b600052601260045260246000fd5b500490565b805169ffffffffffffffffffff8116811461092957600080fd5b600080600080600060a08688031215610c0f57600080fd5b610c1886610bdd565b60208701516040880151606089015192975090955093509150610c3d60808701610bdd565b90509295509295909350565b634e487b7160e01b600052604160045260246000fd5b600060018201610c7157610c71610b5f565b506001019056fea2646970667358221220a1ed27892706d0ab4ccd79e13c9a3ac7351d1901d40a8b029da0f4995413aa0164736f6c634300081c0033a2646970667358221220d006367287c41dc2a6c5d0e85acab3a86a53d1d9ea054536936ad98cdbba1ec264736f6c634300081c0033",
  "linkReferences": {},
  "deployedLinkReferences": {}
}